{"abi":[{"type":"constructor","inputs":[{"name":"name","type":"string","internalType":"string"},{"name":"symbol","type":"string","internalType":"string"},{"name":"uri","type":"string","internalType":"string"}],"stateMutability":"nonpayable"},{"type":"function","name":"approve","inputs":[{"name":"to","type":"address","internalType":"address"},{"name":"tokenId","type":"uint256","internalType":"uint256"}],"outputs":[],"stateMutability":"nonpayable"},{"type":"function","name":"balanceOf","inputs":[{"name":"owner","type":"address","internalType":"address"}],"outputs":[{"name":"","type":"uint256","internalType":"uint256"}],"stateMutability":"view"},{"type":"function","name":"generalTokenURIs","inputs":[],"outputs":[{"name":"","type":"string","internalType":"string"}],"stateMutability":"view"},{"type":"function","name":"getApproved","inputs":[{"name":"tokenId","type":"uint256","internalType":"uint256"}],"outputs":[{"name":"","type":"address","internalType":"address"}],"stateMutability":"view"},{"type":"function","name":"isApprovedForAll","inputs":[{"name":"owner","type":"address","internalType":"address"},{"name":"operator","type":"address","internalType":"address"}],"outputs":[{"name":"","type":"bool","internalType":"bool"}],"stateMutability":"view"},{"type":"function","name":"mint","inputs":[{"name":"to","type":"address","internalType":"address"},{"name":"quantity","type":"uint256","internalType":"uint256"}],"outputs":[],"stateMutability":"nonpayable"},{"type":"function","name":"name","inputs":[],"outputs":[{"name":"","type":"string","internalType":"string"}],"stateMutability":"view"},{"type":"function","name":"ownerOf","inputs":[{"name":"tokenId","type":"uint256","internalType":"uint256"}],"outputs":[{"name":"","type":"address","internalType":"address"}],"stateMutability":"view"},{"type":"function","name":"safeTransferFrom","inputs":[{"name":"from","type":"address","internalType":"address"},{"name":"to","type":"address","internalType":"address"},{"name":"tokenId","type":"uint256","internalType":"uint256"}],"outputs":[],"stateMutability":"nonpayable"},{"type":"function","name":"safeTransferFrom","inputs":[{"name":"from","type":"address","internalType":"address"},{"name":"to","type":"address","internalType":"address"},{"name":"tokenId","type":"uint256","internalType":"uint256"},{"name":"data","type":"bytes","internalType":"bytes"}],"outputs":[],"stateMutability":"nonpayable"},{"type":"function","name":"setApprovalForAll","inputs":[{"name":"operator","type":"address","internalType":"address"},{"name":"approved","type":"bool","internalType":"bool"}],"outputs":[],"stateMutability":"nonpayable"},{"type":"function","name":"supportsInterface","inputs":[{"name":"interfaceId","type":"bytes4","internalType":"bytes4"}],"outputs":[{"name":"","type":"bool","internalType":"bool"}],"stateMutability":"view"},{"type":"function","name":"symbol","inputs":[],"outputs":[{"name":"","type":"string","internalType":"string"}],"stateMutability":"view"},{"type":"function","name":"tokenIndex","inputs":[],"outputs":[{"name":"","type":"uint256","internalType":"uint256"}],"stateMutability":"view"},{"type":"function","name":"tokenURI","inputs":[{"name":"tokenId","type":"uint256","internalType":"uint256"}],"outputs":[{"name":"","type":"string","internalType":"string"}],"stateMutability":"view"},{"type":"function","name":"transferFrom","inputs":[{"name":"from","type":"address","internalType":"address"},{"name":"to","type":"address","internalType":"address"},{"name":"tokenId","type":"uint256","internalType":"uint256"}],"outputs":[],"stateMutability":"nonpayable"},{"type":"event","name":"Approval","inputs":[{"name":"owner","type":"address","indexed":true,"internalType":"address"},{"name":"approved","type":"address","indexed":true,"internalType":"address"},{"name":"tokenId","type":"uint256","indexed":true,"internalType":"uint256"}],"anonymous":false},{"type":"event","name":"ApprovalForAll","inputs":[{"name":"owner","type":"address","indexed":true,"internalType":"address"},{"name":"operator","type":"address","indexed":true,"internalType":"address"},{"name":"approved","type":"bool","indexed":false,"internalType":"bool"}],"anonymous":false},{"type":"event","name":"Transfer","inputs":[{"name":"from","type":"address","indexed":true,"internalType":"address"},{"name":"to","type":"address","indexed":true,"internalType":"address"},{"name":"tokenId","type":"uint256","indexed":true,"internalType":"uint256"}],"anonymous":false},{"type":"error","name":"ERC721IncorrectOwner","inputs":[{"name":"sender","type":"address","internalType":"address"},{"name":"tokenId","type":"uint256","internalType":"uint256"},{"name":"owner","type":"address","internalType":"address"}]},{"type":"error","name":"ERC721InsufficientApproval","inputs":[{"name":"operator","type":"address","internalType":"address"},{"name":"tokenId","type":"uint256","internalType":"uint256"}]},{"type":"error","name":"ERC721InvalidApprover","inputs":[{"name":"approver","type":"address","internalType":"address"}]},{"type":"error","name":"ERC721InvalidOperator","inputs":[{"name":"operator","type":"address","internalType":"address"}]},{"type":"error","name":"ERC721InvalidOwner","inputs":[{"name":"owner","type":"address","internalType":"address"}]},{"type":"error","name":"ERC721InvalidReceiver","inputs":[{"name":"receiver","type":"address","internalType":"address"}]},{"type":"error","name":"ERC721InvalidSender","inputs":[{"name":"sender","type":"address","internalType":"address"}]},{"type":"error","name":"ERC721NonexistentToken","inputs":[{"name":"tokenId","type":"uint256","internalType":"uint256"}]}],"bytecode":{"object":"0x608060405234801561001057600080fd5b5060405161120238038061120283398101604081905261002f91610122565b8282600061003d8382610234565b50600161004a8282610234565b506007915061005b90508282610234565b505050506102f3565b634e487b7160e01b600052604160045260246000fd5b600082601f83011261008b57600080fd5b81516001600160401b03808211156100a5576100a5610064565b604051601f8301601f19908116603f011681019082821181831017156100cd576100cd610064565b81604052838152602092508660208588010111156100ea57600080fd5b600091505b8382101561010c57858201830151818301840152908201906100ef565b6000602085830101528094505050505092915050565b60008060006060848603121561013757600080fd5b83516001600160401b038082111561014e57600080fd5b61015a8783880161007a565b9450602086015191508082111561017057600080fd5b61017c8783880161007a565b9350604086015191508082111561019257600080fd5b5061019f8682870161007a565b9150509250925092565b600181811c908216806101bd57607f821691505b6020821081036101dd57634e487b7160e01b600052602260045260246000fd5b50919050565b601f82111561022f576000816000526020600020601f850160051c8101602086101561020c5750805b601f850160051c820191505b8181101561022b57828155600101610218565b5050505b505050565b81516001600160401b0381111561024d5761024d610064565b6102618161025b84546101a9565b846101e3565b602080601f831160018114610296576000841561027e5750858301515b600019600386901b1c1916600185901b17855561022b565b600085815260208120601f198616915b828110156102c5578886015182559484019460019091019084016102a6565b50858210156102e35787850151600019600388901b60f8161c191681555b5050505050600190811b01905550565b610f00806103026000396000f3fe608060405234801561001057600080fd5b50600436106101005760003560e01c806370a0823111610097578063b88d4fde11610066578063b88d4fde14610212578063c87b56dd14610225578063d55f927314610238578063e985e9c51461024157600080fd5b806370a08231146101ce57806391d31109146101ef57806395d89b41146101f7578063a22cb465146101ff57600080fd5b806323b872dd116100d357806323b872dd1461018257806340c10f191461019557806342842e0e146101a85780636352211e146101bb57600080fd5b806301ffc9a71461010557806306fdde031461012d578063081812fc14610142578063095ea7b31461016d575b600080fd5b610118610113366004610b7b565b610254565b60405190151581526020015b60405180910390f35b6101356102a6565b6040516101249190610be5565b610155610150366004610bf8565b610338565b6040516001600160a01b039091168152602001610124565b61018061017b366004610c2d565b610361565b005b610180610190366004610c57565b610370565b6101806101a3366004610c2d565b610400565b6101806101b6366004610c57565b610437565b6101556101c9366004610bf8565b610452565b6101e16101dc366004610c93565b61045d565b604051908152602001610124565b6101356104a5565b610135610533565b61018061020d366004610cae565b610542565b610180610220366004610d00565b61054d565b610135610233366004610bf8565b610564565b6101e160065481565b61011861024f366004610ddc565b6105f8565b60006001600160e01b031982166380ac58cd60e01b148061028557506001600160e01b03198216635b5e139f60e01b145b806102a057506301ffc9a760e01b6001600160e01b03198316145b92915050565b6060600080546102b590610e0f565b80601f01602080910402602001604051908101604052809291908181526020018280546102e190610e0f565b801561032e5780601f106103035761010080835404028352916020019161032e565b820191906000526020600020905b81548152906001019060200180831161031157829003601f168201915b5050505050905090565b600061034382610626565b506000828152600460205260409020546001600160a01b03166102a0565b61036c82823361065f565b5050565b6001600160a01b03821661039f57604051633250574960e11b8152600060048201526024015b60405180910390fd5b60006103ac83833361066c565b9050836001600160a01b0316816001600160a01b0316146103fa576040516364283d7b60e01b81526001600160a01b0380861660048301526024820184905282166044820152606401610396565b50505050565b60005b818110156104325761041783600654610765565b60066000815461042690610e49565b90915550600101610403565b505050565b6104328383836040518060200160405280600081525061054d565b60006102a082610626565b60006001600160a01b038216610489576040516322718ad960e21b815260006004820152602401610396565b506001600160a01b031660009081526003602052604090205490565b600780546104b290610e0f565b80601f01602080910402602001604051908101604052809291908181526020018280546104de90610e0f565b801561052b5780601f106105005761010080835404028352916020019161052b565b820191906000526020600020905b81548152906001019060200180831161050e57829003601f168201915b505050505081565b6060600180546102b590610e0f565b61036c3383836107ca565b610558848484610370565b6103fa84848484610869565b60606007805461057390610e0f565b80601f016020809104026020016040519081016040528092919081815260200182805461059f90610e0f565b80156105ec5780601f106105c1576101008083540402835291602001916105ec565b820191906000526020600020905b8154815290600101906020018083116105cf57829003601f168201915b50505050509050919050565b6001600160a01b03918216600090815260056020908152604080832093909416825291909152205460ff1690565b6000818152600260205260408120546001600160a01b0316806102a057604051637e27328960e01b815260048101849052602401610396565b6104328383836001610992565b6000828152600260205260408120546001600160a01b039081169083161561069957610699818486610a98565b6001600160a01b038116156106d7576106b6600085600080610992565b6001600160a01b038116600090815260036020526040902080546000190190555b6001600160a01b03851615610706576001600160a01b0385166000908152600360205260409020805460010190555b60008481526002602052604080822080546001600160a01b0319166001600160a01b0389811691821790925591518793918516917fddf252ad1be2c89b69c2b068fc378daa952ba7f163c4a11628f55a4df523b3ef91a4949350505050565b6001600160a01b03821661078f57604051633250574960e11b815260006004820152602401610396565b600061079d8383600061066c565b90506001600160a01b03811615610432576040516339e3563760e11b815260006004820152602401610396565b6001600160a01b0382166107fc57604051630b61174360e31b81526001600160a01b0383166004820152602401610396565b6001600160a01b03838116600081815260056020908152604080832094871680845294825291829020805460ff191686151590811790915591519182527f17307eab39ab6107e8899845ad3d59bd9653f200f220920489ca2b5937696c31910160405180910390a3505050565b6001600160a01b0383163b156103fa57604051630a85bd0160e11b81526001600160a01b0384169063150b7a02906108ab903390889087908790600401610e70565b6020604051808303816000875af19250505080156108e6575060408051601f3d908101601f191682019092526108e391810190610ead565b60015b61094f573d808015610914576040519150601f19603f3d011682016040523d82523d6000602084013e610919565b606091505b50805160000361094757604051633250574960e11b81526001600160a01b0385166004820152602401610396565b805181602001fd5b6001600160e01b03198116630a85bd0160e11b1461098b57604051633250574960e11b81526001600160a01b0385166004820152602401610396565b5050505050565b80806109a657506001600160a01b03821615155b15610a685760006109b684610626565b90506001600160a01b038316158015906109e25750826001600160a01b0316816001600160a01b031614155b80156109f557506109f381846105f8565b155b15610a1e5760405163a9fbf51f60e01b81526001600160a01b0384166004820152602401610396565b8115610a665783856001600160a01b0316826001600160a01b03167f8c5be1e5ebec7d5bd14f71427d1e84f3dd0314c0f7b2291e5b200ac8c7c3b92560405160405180910390a45b505b5050600090815260046020526040902080546001600160a01b0319166001600160a01b0392909216919091179055565b610aa3838383610afc565b610432576001600160a01b038316610ad157604051637e27328960e01b815260048101829052602401610396565b60405163177e802f60e01b81526001600160a01b038316600482015260248101829052604401610396565b60006001600160a01b03831615801590610b5a5750826001600160a01b0316846001600160a01b03161480610b365750610b3684846105f8565b80610b5a57506000828152600460205260409020546001600160a01b038481169116145b949350505050565b6001600160e01b031981168114610b7857600080fd5b50565b600060208284031215610b8d57600080fd5b8135610b9881610b62565b9392505050565b6000815180845260005b81811015610bc557602081850181015186830182015201610ba9565b506000602082860101526020601f19601f83011685010191505092915050565b602081526000610b986020830184610b9f565b600060208284031215610c0a57600080fd5b5035919050565b80356001600160a01b0381168114610c2857600080fd5b919050565b60008060408385031215610c4057600080fd5b610c4983610c11565b946020939093013593505050565b600080600060608486031215610c6c57600080fd5b610c7584610c11565b9250610c8360208501610c11565b9150604084013590509250925092565b600060208284031215610ca557600080fd5b610b9882610c11565b60008060408385031215610cc157600080fd5b610cca83610c11565b915060208301358015158114610cdf57600080fd5b809150509250929050565b634e487b7160e01b600052604160045260246000fd5b60008060008060808587031215610d1657600080fd5b610d1f85610c11565b9350610d2d60208601610c11565b925060408501359150606085013567ffffffffffffffff80821115610d5157600080fd5b818701915087601f830112610d6557600080fd5b813581811115610d7757610d77610cea565b604051601f8201601f19908116603f01168101908382118183101715610d9f57610d9f610cea565b816040528281528a6020848701011115610db857600080fd5b82602086016020830137600060208483010152809550505050505092959194509250565b60008060408385031215610def57600080fd5b610df883610c11565b9150610e0660208401610c11565b90509250929050565b600181811c90821680610e2357607f821691505b602082108103610e4357634e487b7160e01b600052602260045260246000fd5b50919050565b600060018201610e6957634e487b7160e01b600052601160045260246000fd5b5060010190565b6001600160a01b0385811682528416602082015260408101839052608060608201819052600090610ea390830184610b9f565b9695505050505050565b600060208284031215610ebf57600080fd5b8151610b9881610b6256fea2646970667358221220e5acbf4335872585fcfdecdb93386725199506dadad2dc1e98f2bc297605f17764736f6c63430008190033","linkReferences":{}},"methodIdentifiers":{"approve(address,uint256)":"095ea7b3","balanceOf(address)":"70a08231","generalTokenURIs()":"91d31109","getApproved(uint256)":"081812fc","isApprovedForAll(address,address)":"e985e9c5","mint(address,uint256)":"40c10f19","name()":"06fdde03","ownerOf(uint256)":"6352211e","safeTransferFrom(address,address,uint256)":"42842e0e","safeTransferFrom(address,address,uint256,bytes)":"b88d4fde","setApprovalForAll(address,bool)":"a22cb465","supportsInterface(bytes4)":"01ffc9a7","symbol()":"95d89b41","tokenIndex()":"d55f9273","tokenURI(uint256)":"c87b56dd","transferFrom(address,address,uint256)":"23b872dd"},"id":0}